{
    "_format": "hh-sol-artifact-1",
    "contractName": "LandRegistry",
    "sourceName": "contracts/LandRegistry.sol",
    "address": "0x2f6E1d3218fcC2218541e42c32C490FD9227638d",
    "abi": [
        {
            "anonymous": false,
            "inputs": [
                {
                    "indexed": false,
                    "internalType": "uint256",
                    "name": "propertyId",
                    "type": "uint256"
                },
                {
                    "indexed": false,
                    "internalType": "address",
                    "name": "previousOwner",
                    "type": "address"
                },
                {
                    "indexed": false,
                    "internalType": "address",
                    "name": "newOwner",
                    "type": "address"
                },
                {
                    "indexed": false,
                    "internalType": "bytes32",
                    "name": "txHash",
                    "type": "bytes32"
                }
            ],
            "name": "OwnershipTransferred",
            "type": "event"
        },
        {
            "anonymous": false,
            "inputs": [
                {
                    "indexed": false,
                    "internalType": "uint256",
                    "name": "propertyId",
                    "type": "uint256"
                },
                {
                    "indexed": false,
                    "internalType": "string",
                    "name": "propertyNumber",
                    "type": "string"
                },
                {
                    "indexed": false,
                    "internalType": "address",
                    "name": "owner",
                    "type": "address"
                },
                {
                    "indexed": false,
                    "internalType": "string",
                    "name": "location",
                    "type": "string"
                },
                {
                    "indexed": false,
                    "internalType": "string",
                    "name": "documentHash",
                    "type": "string"
                }
            ],
            "name": "PropertyRegistered",
            "type": "event"
        },
        {
            "anonymous": false,
            "inputs": [
                {
                    "indexed": false,
                    "internalType": "uint256",
                    "name": "propertyId",
                    "type": "uint256"
                },
                {
                    "indexed": false,
                    "internalType": "address",
                    "name": "verifiedBy",
                    "type": "address"
                }
            ],
            "name": "PropertyVerified",
            "type": "event"
        },
        {
            "inputs": [],
            "name": "admin",
            "outputs": [
                {
                    "internalType": "address",
                    "name": "",
                    "type": "address"
                }
            ],
            "stateMutability": "view",
            "type": "function"
        },
        {
            "inputs": [],
            "name": "getAllProperties",
            "outputs": [
                {
                    "components": [
                        {
                            "internalType": "uint256",
                            "name": "id",
                            "type": "uint256"
                        },
                        {
                            "internalType": "string",
                            "name": "propertyNumber",
                            "type": "string"
                        },
                        {
                            "internalType": "address",
                            "name": "owner",
                            "type": "address"
                        },
                        {
                            "internalType": "string",
                            "name": "location",
                            "type": "string"
                        },
                        {
                            "internalType": "string",
                            "name": "documentHash",
                            "type": "string"
                        },
                        {
                            "internalType": "bool",
                            "name": "isRegistered",
                            "type": "bool"
                        },
                        {
                            "internalType": "bool",
                            "name": "isVerified",
                            "type": "bool"
                        }
                    ],
                    "internalType": "struct LandRegistry.Property[]",
                    "name": "",
                    "type": "tuple[]"
                }
            ],
            "stateMutability": "view",
            "type": "function"
        },
        {
            "inputs": [],
            "name": "getMyProperties",
            "outputs": [
                {
                    "components": [
                        {
                            "internalType": "uint256",
                            "name": "id",
                            "type": "uint256"
                        },
                        {
                            "internalType": "string",
                            "name": "propertyNumber",
                            "type": "string"
                        },
                        {
                            "internalType": "address",
                            "name": "owner",
                            "type": "address"
                        },
                        {
                            "internalType": "string",
                            "name": "location",
                            "type": "string"
                        },
                        {
                            "internalType": "string",
                            "name": "documentHash",
                            "type": "string"
                        },
                        {
                            "internalType": "bool",
                            "name": "isRegistered",
                            "type": "bool"
                        },
                        {
                            "internalType": "bool",
                            "name": "isVerified",
                            "type": "bool"
                        }
                    ],
                    "internalType": "struct LandRegistry.Property[]",
                    "name": "",
                    "type": "tuple[]"
                }
            ],
            "stateMutability": "view",
            "type": "function"
        },
        {
            "inputs": [
                {
                    "internalType": "uint256",
                    "name": "_propertyId",
                    "type": "uint256"
                }
            ],
            "name": "getProperty",
            "outputs": [
                {
                    "internalType": "uint256",
                    "name": "",
                    "type": "uint256"
                },
                {
                    "internalType": "string",
                    "name": "",
                    "type": "string"
                },
                {
                    "internalType": "address",
                    "name": "",
                    "type": "address"
                },
                {
                    "internalType": "string",
                    "name": "",
                    "type": "string"
                },
                {
                    "internalType": "string",
                    "name": "",
                    "type": "string"
                },
                {
                    "internalType": "bool",
                    "name": "",
                    "type": "bool"
                },
                {
                    "internalType": "bool",
                    "name": "",
                    "type": "bool"
                }
            ],
            "stateMutability": "view",
            "type": "function"
        },
        {
            "inputs": [],
            "name": "getTransactionHistory",
            "outputs": [
                {
                    "components": [
                        {
                            "internalType": "uint256",
                            "name": "propertyId",
                            "type": "uint256"
                        },
                        {
                            "internalType": "address",
                            "name": "sender",
                            "type": "address"
                        },
                        {
                            "internalType": "address",
                            "name": "receiver",
                            "type": "address"
                        },
                        {
                            "internalType": "bytes32",
                            "name": "txHash",
                            "type": "bytes32"
                        }
                    ],
                    "internalType": "struct LandRegistry.Transaction[]",
                    "name": "",
                    "type": "tuple[]"
                }
            ],
            "stateMutability": "view",
            "type": "function"
        },
        {
            "inputs": [
                {
                    "internalType": "uint256",
                    "name": "propertyId",
                    "type": "uint256"
                }
            ],
            "name": "getTransactionHistory",
            "outputs": [
                {
                    "components": [
                        {
                            "internalType": "uint256",
                            "name": "propertyId",
                            "type": "uint256"
                        },
                        {
                            "internalType": "address",
                            "name": "sender",
                            "type": "address"
                        },
                        {
                            "internalType": "address",
                            "name": "receiver",
                            "type": "address"
                        },
                        {
                            "internalType": "bytes32",
                            "name": "txHash",
                            "type": "bytes32"
                        }
                    ],
                    "internalType": "struct LandRegistry.Transaction[]",
                    "name": "",
                    "type": "tuple[]"
                }
            ],
            "stateMutability": "view",
            "type": "function"
        },
        {
            "inputs": [
                {
                    "internalType": "address",
                    "name": "",
                    "type": "address"
                },
                {
                    "internalType": "uint256",
                    "name": "",
                    "type": "uint256"
                }
            ],
            "name": "ownerProperties",
            "outputs": [
                {
                    "internalType": "uint256",
                    "name": "",
                    "type": "uint256"
                }
            ],
            "stateMutability": "view",
            "type": "function"
        },
        {
            "inputs": [
                {
                    "internalType": "uint256",
                    "name": "",
                    "type": "uint256"
                }
            ],
            "name": "properties",
            "outputs": [
                {
                    "internalType": "uint256",
                    "name": "id",
                    "type": "uint256"
                },
                {
                    "internalType": "string",
                    "name": "propertyNumber",
                    "type": "string"
                },
                {
                    "internalType": "address",
                    "name": "owner",
                    "type": "address"
                },
                {
                    "internalType": "string",
                    "name": "location",
                    "type": "string"
                },
                {
                    "internalType": "string",
                    "name": "documentHash",
                    "type": "string"
                },
                {
                    "internalType": "bool",
                    "name": "isRegistered",
                    "type": "bool"
                },
                {
                    "internalType": "bool",
                    "name": "isVerified",
                    "type": "bool"
                }
            ],
            "stateMutability": "view",
            "type": "function"
        },
        {
            "inputs": [],
            "name": "propertyCount",
            "outputs": [
                {
                    "internalType": "uint256",
                    "name": "",
                    "type": "uint256"
                }
            ],
            "stateMutability": "view",
            "type": "function"
        },
        {
            "inputs": [
                {
                    "internalType": "string",
                    "name": "_propertyNumber",
                    "type": "string"
                },
                {
                    "internalType": "string",
                    "name": "_location",
                    "type": "string"
                },
                {
                    "internalType": "string",
                    "name": "_documentHash",
                    "type": "string"
                }
            ],
            "name": "registerProperty",
            "outputs": [],
            "stateMutability": "nonpayable",
            "type": "function"
        },
        {
            "inputs": [
                {
                    "internalType": "uint256",
                    "name": "",
                    "type": "uint256"
                }
            ],
            "name": "transactions",
            "outputs": [
                {
                    "internalType": "uint256",
                    "name": "propertyId",
                    "type": "uint256"
                },
                {
                    "internalType": "address",
                    "name": "sender",
                    "type": "address"
                },
                {
                    "internalType": "address",
                    "name": "receiver",
                    "type": "address"
                },
                {
                    "internalType": "bytes32",
                    "name": "txHash",
                    "type": "bytes32"
                }
            ],
            "stateMutability": "view",
            "type": "function"
        },
        {
            "inputs": [
                {
                    "internalType": "uint256",
                    "name": "_propertyId",
                    "type": "uint256"
                },
                {
                    "internalType": "address",
                    "name": "_newOwner",
                    "type": "address"
                }
            ],
            "name": "transferOwnership",
            "outputs": [],
            "stateMutability": "nonpayable",
            "type": "function"
        },
        {
            "inputs": [
                {
                    "internalType": "uint256",
                    "name": "_propertyId",
                    "type": "uint256"
                }
            ],
            "name": "verifyProperty",
            "outputs": [],
            "stateMutability": "nonpayable",
            "type": "function"
        }
    ],
    "bytecode": "0x608060405273f29bbcfb987f3618515ddde75d6cad34cc1855d76000806101000a81548173ffffffffffffffffffffffffffffffffffffffff021916908373ffffffffffffffffffffffffffffffffffffffff16021790555034801561006457600080fd5b50612bfd806100746000396000f3fe608060405234801561001057600080fd5b50600436106100cf5760003560e01c80639ace38c21161008c578063f692f5e711610066578063f692f5e71461021d578063f6eaad731461024d578063f7b1080814610269578063f851a4401461029f576100cf565b80639ace38c2146101ae578063b76d4fc3146101e1578063c361a335146101ff576100cf565b806329507f73146100d457806332665ffb146100f0578063397f7952146101265780633d51402c146101445780634212a8ae146101625780638f48bd5b1461017e575b600080fd5b6100ee60048036038101906100e99190611cb2565b6102bd565b005b61010a60048036038101906101059190611cf2565b6107bb565b60405161011d9796959493929190611de8565b60405180910390f35b61012e610a72565b60405161013b919061204f565b60405180910390f35b61014c610e23565b604051610159919061204f565b60405180910390f35b61017c60048036038101906101779190611cf2565b6111cc565b005b61019860048036038101906101939190612071565b611328565b6040516101a591906120b1565b60405180910390f35b6101c860048036038101906101c39190611cf2565b611359565b6040516101d894939291906120e5565b60405180910390f35b6101e96113d9565b6040516101f6919061223d565b60405180910390f35b6102076114f8565b60405161021491906120b1565b60405180910390f35b61023760048036038101906102329190611cf2565b6114fe565b604051610244919061223d565b60405180910390f35b61026760048036038101906102629190612394565b611722565b005b610283600480360381019061027e9190611cf2565b611924565b6040516102969796959493929190611de8565b60405180910390f35b6102a7611b38565b6040516102b4919061243b565b60405180910390f35b813373ffffffffffffffffffffffffffffffffffffffff166002600083815260200190815260200160002060020160009054906101000a900473ffffffffffffffffffffffffffffffffffffffff1673ffffffffffffffffffffffffffffffffffffffff1614610362576040517f08c379a0000000000000000000000000000000000000000000000000000000008152600401610359906124a2565b60405180910390fd5b600073ffffffffffffffffffffffffffffffffffffffff168273ffffffffffffffffffffffffffffffffffffffff16036103d1576040517f08c379a00000000000000000000000000000000000000000000000000000000081526004016103c89061250e565b60405180910390fd5b6002600084815260200190815260200160002060050160019054906101000a900460ff16610434576040517f08c379a000000000000000000000000000000000000000000000000000000000815260040161042b9061257a565b60405180910390fd5b60006002600085815260200190815260200160002060020160009054906101000a900473ffffffffffffffffffffffffffffffffffffffff169050826002600086815260200190815260200160002060020160006101000a81548173ffffffffffffffffffffffffffffffffffffffff021916908373ffffffffffffffffffffffffffffffffffffffff1602179055506000848285426040516020016104dd9493929190612603565b604051602081830303815290604052805190602001209050600460405180608001604052808781526020018473ffffffffffffffffffffffffffffffffffffffff1681526020018673ffffffffffffffffffffffffffffffffffffffff1681526020018381525090806001815401808255809150506001900390600052602060002090600402016000909190919091506000820151816000015560208201518160010160006101000a81548173ffffffffffffffffffffffffffffffffffffffff021916908373ffffffffffffffffffffffffffffffffffffffff16021790555060408201518160020160006101000a81548173ffffffffffffffffffffffffffffffffffffffff021916908373ffffffffffffffffffffffffffffffffffffffff1602179055506060820151816003015550506000600360008473ffffffffffffffffffffffffffffffffffffffff1673ffffffffffffffffffffffffffffffffffffffff168152602001908152602001600020905060005b818054905081101561070f578682828154811061067757610676612651565b5b90600052602060002001540361070257816001838054905061069991906126af565b815481106106aa576106a9612651565b5b90600052602060002001548282815481106106c8576106c7612651565b5b9060005260206000200181905550818054806106e7576106e66126e3565b5b6001900381819060005260206000200160009055905561070f565b8080600101915050610657565b50600360008673ffffffffffffffffffffffffffffffffffffffff1673ffffffffffffffffffffffffffffffffffffffff1681526020019081526020016000208690806001815401808255809150506001900390600052602060002001600090919091909150557f777451ee8de14d38427479a1b2c8c77cb14ab57354a7d8d2ab9c1c1bf61561ab868487856040516107ab94939291906120e5565b60405180910390a1505050505050565b6000606060006060806000806000600260008a81526020019081526020016000206040518060e00160405290816000820154815260200160018201805461080190612741565b80601f016020809104026020016040519081016040528092919081815260200182805461082d90612741565b801561087a5780601f1061084f5761010080835404028352916020019161087a565b820191906000526020600020905b81548152906001019060200180831161085d57829003601f168201915b505050505081526020016002820160009054906101000a900473ffffffffffffffffffffffffffffffffffffffff1673ffffffffffffffffffffffffffffffffffffffff1673ffffffffffffffffffffffffffffffffffffffff1681526020016003820180546108e990612741565b80601f016020809104026020016040519081016040528092919081815260200182805461091590612741565b80156109625780601f1061093757610100808354040283529160200191610962565b820191906000526020600020905b81548152906001019060200180831161094557829003601f168201915b5050505050815260200160048201805461097b90612741565b80601f01602080910402602001604051908101604052809291908181526020018280546109a790612741565b80156109f45780601f106109c9576101008083540402835291602001916109f4565b820191906000526020600020905b8154815290600101906020018083116109d757829003601f168201915b505050505081526020016005820160009054906101000a900460ff161515151581526020016005820160019054906101000a900460ff1615151515815250509050806000015181602001518260400151836060015184608001518560a001518660c00151975097509750975097509750975050919395979092949650565b60606000600360003373ffffffffffffffffffffffffffffffffffffffff1673ffffffffffffffffffffffffffffffffffffffff168152602001908152602001600020805480602002602001604051908101604052809291908181526020018280548015610aff57602002820191906000526020600020905b815481526020019060010190808311610aeb575b505050505090506000815167ffffffffffffffff811115610b2357610b22612269565b5b604051908082528060200260200182016040528015610b5c57816020015b610b49611b5c565b815260200190600190039081610b415790505b50905060005b8251811015610e1a5760026000848381518110610b8257610b81612651565b5b602002602001015181526020019081526020016000206040518060e001604052908160008201548152602001600182018054610bbd90612741565b80601f0160208091040260200160405190810160405280929190818152602001828054610be990612741565b8015610c365780601f10610c0b57610100808354040283529160200191610c36565b820191906000526020600020905b815481529060010190602001808311610c1957829003601f168201915b505050505081526020016002820160009054906101000a900473ffffffffffffffffffffffffffffffffffffffff1673ffffffffffffffffffffffffffffffffffffffff1673ffffffffffffffffffffffffffffffffffffffff168152602001600382018054610ca590612741565b80601f0160208091040260200160405190810160405280929190818152602001828054610cd190612741565b8015610d1e5780601f10610cf357610100808354040283529160200191610d1e565b820191906000526020600020905b815481529060010190602001808311610d0157829003601f168201915b50505050508152602001600482018054610d3790612741565b80601f0160208091040260200160405190810160405280929190818152602001828054610d6390612741565b8015610db05780601f10610d8557610100808354040283529160200191610db0565b820191906000526020600020905b815481529060010190602001808311610d9357829003601f168201915b505050505081526020016005820160009054906101000a900460ff161515151581526020016005820160019054906101000a900460ff161515151581525050828281518110610e0257610e01612651565b5b60200260200101819052508080600101915050610b62565b50809250505090565b606060008054906101000a900473ffffffffffffffffffffffffffffffffffffffff1673ffffffffffffffffffffffffffffffffffffffff163373ffffffffffffffffffffffffffffffffffffffff1614610eb3576040517f08c379a0000000000000000000000000000000000000000000000000000000008152600401610eaa906127e4565b60405180910390fd5b600060015467ffffffffffffffff811115610ed157610ed0612269565b5b604051908082528060200260200182016040528015610f0a57816020015b610ef7611b5c565b815260200190600190039081610eef5790505b5090506000600190505b60015481116111c457600260008281526020019081526020016000206040518060e001604052908160008201548152602001600182018054610f5590612741565b80601f0160208091040260200160405190810160405280929190818152602001828054610f8190612741565b8015610fce5780601f10610fa357610100808354040283529160200191610fce565b820191906000526020600020905b815481529060010190602001808311610fb157829003601f168201915b505050505081526020016002820160009054906101000a900473ffffffffffffffffffffffffffffffffffffffff1673ffffffffffffffffffffffffffffffffffffffff1673ffffffffffffffffffffffffffffffffffffffff16815260200160038201805461103d90612741565b80601f016020809104026020016040519081016040528092919081815260200182805461106990612741565b80156110b65780601f1061108b576101008083540402835291602001916110b6565b820191906000526020600020905b81548152906001019060200180831161109957829003601f168201915b505050505081526020016004820180546110cf90612741565b80601f01602080910402602001604051908101604052809291908181526020018280546110fb90612741565b80156111485780601f1061111d57610100808354040283529160200191611148565b820191906000526020600020905b81548152906001019060200180831161112b57829003601f168201915b505050505081526020016005820160009054906101000a900460ff161515151581526020016005820160019054906101000a900460ff1615151515815250508260018361119591906126af565b815181106111a6576111a5612651565b5b602002602001018190525080806111bc90612804565b915050610f14565b508091505090565b60008054906101000a900473ffffffffffffffffffffffffffffffffffffffff1673ffffffffffffffffffffffffffffffffffffffff163373ffffffffffffffffffffffffffffffffffffffff161461125a576040517f08c379a0000000000000000000000000000000000000000000000000000000008152600401611251906127e4565b60405180910390fd5b6002600082815260200190815260200160002060050160009054906101000a900460ff166112bd576040517f08c379a00000000000000000000000000000000000000000000000000000000081526004016112b490612898565b60405180910390fd5b60016002600083815260200190815260200160002060050160016101000a81548160ff0219169083151502179055507f791049df3faadbda0c00ec3e469ce592f100f0d6664511fa7ac1ab33bf0aafda813360405161131d9291906128b8565b60405180910390a150565b6003602052816000526040600020818154811061134457600080fd5b90600052602060002001600091509150505481565b6004818154811061136957600080fd5b90600052602060002090600402016000915090508060000154908060010160009054906101000a900473ffffffffffffffffffffffffffffffffffffffff16908060020160009054906101000a900473ffffffffffffffffffffffffffffffffffffffff16908060030154905084565b60606004805480602002602001604051908101604052809291908181526020016000905b828210156114ef5783829060005260206000209060040201604051806080016040529081600082015481526020016001820160009054906101000a900473ffffffffffffffffffffffffffffffffffffffff1673ffffffffffffffffffffffffffffffffffffffff1673ffffffffffffffffffffffffffffffffffffffff1681526020016002820160009054906101000a900473ffffffffffffffffffffffffffffffffffffffff1673ffffffffffffffffffffffffffffffffffffffff1673ffffffffffffffffffffffffffffffffffffffff168152602001600382015481525050815260200190600101906113fd565b50505050905090565b60015481565b60606000805b60048054905081101561155957836004828154811061152657611525612651565b5b9060005260206000209060040201600001540361154c57818061154890612804565b9250505b8080600101915050611504565b5060008167ffffffffffffffff81111561157657611575612269565b5b6040519080825280602002602001820160405280156115af57816020015b61159c611bb3565b8152602001906001900390816115945790505b5090506000805b6004805490508110156117165785600482815481106115d8576115d7612651565b5b90600052602060002090600402016000015403611709576004818154811061160357611602612651565b5b9060005260206000209060040201604051806080016040529081600082015481526020016001820160009054906101000a900473ffffffffffffffffffffffffffffffffffffffff1673ffffffffffffffffffffffffffffffffffffffff1673ffffffffffffffffffffffffffffffffffffffff1681526020016002820160009054906101000a900473ffffffffffffffffffffffffffffffffffffffff1673ffffffffffffffffffffffffffffffffffffffff1673ffffffffffffffffffffffffffffffffffffffff1681526020016003820154815250508383815181106116ef576116ee612651565b5b6020026020010181905250818061170590612804565b9250505b80806001019150506115b6565b50819350505050919050565b6001600081548092919061173590612804565b91905055506040518060e0016040528060015481526020018481526020013373ffffffffffffffffffffffffffffffffffffffff168152602001838152602001828152602001600115158152602001600015158152506002600060015481526020019081526020016000206000820151816000015560208201518160010190816117bf9190612a8d565b5060408201518160020160006101000a81548173ffffffffffffffffffffffffffffffffffffffff021916908373ffffffffffffffffffffffffffffffffffffffff160217905550606082015181600301908161181c9190612a8d565b5060808201518160040190816118329190612a8d565b5060a08201518160050160006101000a81548160ff02191690831515021790555060c08201518160050160016101000a81548160ff021916908315150217905550905050600360003373ffffffffffffffffffffffffffffffffffffffff1673ffffffffffffffffffffffffffffffffffffffff16815260200190815260200160002060015490806001815401808255809150506001900390600052602060002001600090919091909150557fd219629c148713642b1fc461b22ceefb2c029889a25609ce6b690b80f415da8a60015484338585604051611917959493929190612b5f565b60405180910390a1505050565b600260205280600052604060002060009150905080600001549080600101805461194d90612741565b80601f016020809104026020016040519081016040528092919081815260200182805461197990612741565b80156119c65780601f1061199b576101008083540402835291602001916119c6565b820191906000526020600020905b8154815290600101906020018083116119a957829003601f168201915b5050505050908060020160009054906101000a900473ffffffffffffffffffffffffffffffffffffffff1690806003018054611a0190612741565b80601f0160208091040260200160405190810160405280929190818152602001828054611a2d90612741565b8015611a7a5780601f10611a4f57610100808354040283529160200191611a7a565b820191906000526020600020905b815481529060010190602001808311611a5d57829003601f168201915b505050505090806004018054611a8f90612741565b80601f0160208091040260200160405190810160405280929190818152602001828054611abb90612741565b8015611b085780601f10611add57610100808354040283529160200191611b08565b820191906000526020600020905b815481529060010190602001808311611aeb57829003601f168201915b5050505050908060050160009054906101000a900460ff16908060050160019054906101000a900460ff16905087565b60008054906101000a900473ffffffffffffffffffffffffffffffffffffffff1681565b6040518060e001604052806000815260200160608152602001600073ffffffffffffffffffffffffffffffffffffffff16815260200160608152602001606081526020016000151581526020016000151581525090565b604051806080016040528060008152602001600073ffffffffffffffffffffffffffffffffffffffff168152602001600073ffffffffffffffffffffffffffffffffffffffff168152602001600080191681525090565b6000604051905090565b600080fd5b600080fd5b6000819050919050565b611c3181611c1e565b8114611c3c57600080fd5b50565b600081359050611c4e81611c28565b92915050565b600073ffffffffffffffffffffffffffffffffffffffff82169050919050565b6000611c7f82611c54565b9050919050565b611c8f81611c74565b8114611c9a57600080fd5b50565b600081359050611cac81611c86565b92915050565b60008060408385031215611cc957611cc8611c14565b5b6000611cd785828601611c3f565b9250506020611ce885828601611c9d565b9150509250929050565b600060208284031215611d0857611d07611c14565b5b6000611d1684828501611c3f565b91505092915050565b611d2881611c1e565b82525050565b600081519050919050565b600082825260208201905092915050565b60005b83811015611d68578082015181840152602081019050611d4d565b60008484015250505050565b6000601f19601f8301169050919050565b6000611d9082611d2e565b611d9a8185611d39565b9350611daa818560208601611d4a565b611db381611d74565b840191505092915050565b611dc781611c74565b82525050565b60008115159050919050565b611de281611dcd565b82525050565b600060e082019050611dfd600083018a611d1f565b8181036020830152611e0f8189611d85565b9050611e1e6040830188611dbe565b8181036060830152611e308187611d85565b90508181036080830152611e448186611d85565b9050611e5360a0830185611dd9565b611e6060c0830184611dd9565b98975050505050505050565b600081519050919050565b600082825260208201905092915050565b6000819050602082019050919050565b611ea181611c1e565b82525050565b600082825260208201905092915050565b6000611ec382611d2e565b611ecd8185611ea7565b9350611edd818560208601611d4a565b611ee681611d74565b840191505092915050565b611efa81611c74565b82525050565b611f0981611dcd565b82525050565b600060e083016000830151611f276000860182611e98565b5060208301518482036020860152611f3f8282611eb8565b9150506040830151611f546040860182611ef1565b5060608301518482036060860152611f6c8282611eb8565b91505060808301518482036080860152611f868282611eb8565b91505060a0830151611f9b60a0860182611f00565b5060c0830151611fae60c0860182611f00565b508091505092915050565b6000611fc58383611f0f565b905092915050565b6000602082019050919050565b6000611fe582611e6c565b611fef8185611e77565b93508360208202850161200185611e88565b8060005b8581101561203d578484038952815161201e8582611fb9565b945061202983611fcd565b925060208a01995050600181019050612005565b50829750879550505050505092915050565b600060208201905081810360008301526120698184611fda565b905092915050565b6000806040838503121561208857612087611c14565b5b600061209685828601611c9d565b92505060206120a785828601611c3f565b9150509250929050565b60006020820190506120c66000830184611d1f565b92915050565b6000819050919050565b6120df816120cc565b82525050565b60006080820190506120fa6000830187611d1f565b6121076020830186611dbe565b6121146040830185611dbe565b61212160608301846120d6565b95945050505050565b600081519050919050565b600082825260208201905092915050565b6000819050602082019050919050565b61215f816120cc565b82525050565b60808201600082015161217b6000850182611e98565b50602082015161218e6020850182611ef1565b5060408201516121a16040850182611ef1565b5060608201516121b46060850182612156565b50505050565b60006121c68383612165565b60808301905092915050565b6000602082019050919050565b60006121ea8261212a565b6121f48185612135565b93506121ff83612146565b8060005b8381101561223057815161221788826121ba565b9750612222836121d2565b925050600181019050612203565b5085935050505092915050565b6000602082019050818103600083015261225781846121df565b905092915050565b600080fd5b600080fd5b7f4e487b7100000000000000000000000000000000000000000000000000000000600052604160045260246000fd5b6122a182611d74565b810181811067ffffffffffffffff821117156122c0576122bf612269565b5b80604052505050565b60006122d3611c0a565b90506122df8282612298565b919050565b600067ffffffffffffffff8211156122ff576122fe612269565b5b61230882611d74565b9050602081019050919050565b82818337600083830152505050565b6000612337612332846122e4565b6122c9565b90508281526020810184848401111561235357612352612264565b5b61235e848285612315565b509392505050565b600082601f83011261237b5761237a61225f565b5b813561238b848260208601612324565b91505092915050565b6000806000606084860312156123ad576123ac611c14565b5b600084013567ffffffffffffffff8111156123cb576123ca611c19565b5b6123d786828701612366565b935050602084013567ffffffffffffffff8111156123f8576123f7611c19565b5b61240486828701612366565b925050604084013567ffffffffffffffff81111561242557612424611c19565b5b61243186828701612366565b9150509250925092565b60006020820190506124506000830184611dbe565b92915050565b7f4e6f74207468652070726f7065727479206f776e65722e000000000000000000600082015250565b600061248c601783611d39565b915061249782612456565b602082019050919050565b600060208201905081810360008301526124bb8161247f565b9050919050565b7f496e76616c696420616464726573732e00000000000000000000000000000000600082015250565b60006124f8601083611d39565b9150612503826124c2565b602082019050919050565b60006020820190508181036000830152612527816124eb565b9050919050565b7f50726f7065727479206e6f742076657269666965642e00000000000000000000600082015250565b6000612564601683611d39565b915061256f8261252e565b602082019050919050565b6000602082019050818103600083015261259381612557565b9050919050565b6000819050919050565b6125b56125b082611c1e565b61259a565b82525050565b60008160601b9050919050565b60006125d3826125bb565b9050919050565b60006125e5826125c8565b9050919050565b6125fd6125f882611c74565b6125da565b82525050565b600061260f82876125a4565b60208201915061261f82866125ec565b60148201915061262f82856125ec565b60148201915061263f82846125a4565b60208201915081905095945050505050565b7f4e487b7100000000000000000000000000000000000000000000000000000000600052603260045260246000fd5b7f4e487b7100000000000000000000000000000000000000000000000000000000600052601160045260246000fd5b60006126ba82611c1e565b91506126c583611c1e565b92508282039050818111156126dd576126dc612680565b5b92915050565b7f4e487b7100000000000000000000000000000000000000000000000000000000600052603160045260246000fd5b7f4e487b7100000000000000000000000000000000000000000000000000000000600052602260045260246000fd5b6000600282049050600182168061275957607f821691505b60208210810361276c5761276b612712565b5b50919050565b7f4f6e6c792061646d696e2063616e20706572666f726d2074686973206163746960008201527f6f6e2e0000000000000000000000000000000000000000000000000000000000602082015250565b60006127ce602383611d39565b91506127d982612772565b604082019050919050565b600060208201905081810360008301526127fd816127c1565b9050919050565b600061280f82611c1e565b91507fffffffffffffffffffffffffffffffffffffffffffffffffffffffffffffffff820361284157612840612680565b5b600182019050919050565b7f50726f7065727479206e6f7420666f756e642e00000000000000000000000000600082015250565b6000612882601383611d39565b915061288d8261284c565b602082019050919050565b600060208201905081810360008301526128b181612875565b9050919050565b60006040820190506128cd6000830185611d1f565b6128da6020830184611dbe565b9392505050565b60008190508160005260206000209050919050565b60006020601f8301049050919050565b600082821b905092915050565b6000600883026129437fffffffffffffffffffffffffffffffffffffffffffffffffffffffffffffffff82612906565b61294d8683612906565b95508019841693508086168417925050509392505050565b6000819050919050565b600061298a61298561298084611c1e565b612965565b611c1e565b9050919050565b6000819050919050565b6129a48361296f565b6129b86129b082612991565b848454612913565b825550505050565b600090565b6129cd6129c0565b6129d881848461299b565b505050565b5b818110156129fc576129f16000826129c5565b6001810190506129de565b5050565b601f821115612a4157612a12816128e1565b612a1b846128f6565b81016020851015612a2a578190505b612a3e612a36856128f6565b8301826129dd565b50505b505050565b600082821c905092915050565b6000612a6460001984600802612a46565b1980831691505092915050565b6000612a7d8383612a53565b9150826002028217905092915050565b612a9682611d2e565b67ffffffffffffffff811115612aaf57612aae612269565b5b612ab98254612741565b612ac4828285612a00565b600060209050601f831160018114612af75760008415612ae5578287015190505b612aef8582612a71565b865550612b57565b601f198416612b05866128e1565b60005b82811015612b2d57848901518255600182019150602085019450602081019050612b08565b86831015612b4a5784890151612b46601f891682612a53565b8355505b6001600288020188555050505b505050505050565b600060a082019050612b746000830188611d1f565b8181036020830152612b868187611d85565b9050612b956040830186611dbe565b8181036060830152612ba78185611d85565b90508181036080830152612bbb8184611d85565b9050969550505050505056fea2646970667358221220fb239258aac321ecc79afcbb752c4b9f4cee5870b506588185cf1378be87fa5764736f6c63430008180033",
    "linkReferences": {},
    "deployedLinkReferences": {}
}